:1000000016C1000044C1000042C1000040C1000010
:100010003EC100003CC100003AC1000038C10000F0
:1000200036C1000034C1000032C1000030C1000000
:100030002EC100002CC100002AC1000028C1000010
:1000400026C1000024C1000022C1000020C1000020
:100050001EC100001CC100001AC100003EC4000007
:1000600016C1000004C40000D9C3000010C1000084
:100070000EC100000CC100000AC1000008C1000050
:1000800006C1000004C1000002C1000000C1000060
:10009000FEC00000FCC00000FAC00000F8C0000074
:1000A000F6C00000F4C00000F2C00000F0C0000084
:1000B000EEC00000ECC00000EAC00000E8C0000094
:1000C000E6C00000E4C00000E2C00000E0C00000A4
:1000D000DEC00000DCC00000DAC00000D8C00000B4
:1000E000D6C00000F902FC02EB02EF02F302330378
:1000F000000304030A030E03120318031C03200366
:10010000330326032A032E0305A84CCDB2D44EB9DF
:100110003836A9020C50B9918688083CA6AAAA2AAA
:10012000BE000000803F00000A0B02090C0D0E0803
:1001300007030401000000000000000000000000B0
:1001400000000000000000000000000000000000AF
:10015000000012111000000000000000000000006C
:10016000000000000000000000000000000022006D
:10017000250028002B002E00310034000201000071
:10018000050108010B0100002100240027002A00BE
:100190002D003000330001010000040107010A01B5
:1001A00005050505070508080808020202020A0AF3
:1001B0000808040404040101010101010101030311
:1001C000030303030303040707070C0C0C0C0C0CBC
:1001D0000C0C0202020206060606060606060B0BB9
:1001E0000B0B0B0B0B0B01021020200808102040FA
:1001F00010204080020102010804020101020408EB
:100200001020408080402010080402018004020178
:1002100080402010080402010804020101020408C1
:10022000102040800102040810204080B7041124EF
:100230001FBECFEFD1E2DEBFCDBF00E00CBF12E0AA
:10024000A0E0B2E0EAE2F6E100E00BBF02C00790F6
:100250000D92A434B107D9F723E0A4E4B2E001C0C1
:100260001D92AA35B207E1F711E0C7E1D1E000E045
:1002700006C021970109802FFE010E94070BC6319D
:10028000D10780E00807A9F7B1D30C94130BB8CEBF
:10029000E5E7F2E0A089B18982E08C93A485B58579
:1002A0001C92A685B7858FEC8C93108EA489B58996
:1002B00086E08C93A289B3898C9180618C93A2890A
:1002C000B3898C9188608C93A289B3898C91806862
:1002D0008C930288F389E02D80818F7D808308953F
:1002E00090E0FC01EA51FE4F2491FC01E056FE4FE4
:1002F0008491882399F090E0880F991FFC01EA57B8
:10030000FE4FA591B491FC01E459FE4F8591949163
:100310008FB7F894EC91E22BEC938FBF0895CF92B6
:10032000DF92EF92FF920F931F93CF93DF936C01B5
:100330007A018B01C0E0D0E0CE15DF0581F0D80155
:100340006D918D01D601ED91FC910190F081E02D30
:10035000C6011995892B11F02196EECF7E01C701B8
:10036000DF91CF911F910F91FF90EF90DF90CF9091
:100370000895089580E090E00895FC01538D448D28
:10038000252F30E0842F90E0821B930B541710F040
:10039000CF96089501970895FC01918D828D98174D
:1003A00061F0828DDF01A80FB11D5D968C91928D59
:1003B0009F5F9F73928F90E008958FEF9FEF089556
:1003C000FC01918D828D981731F0828DE80FF11D1F
:1003D000858D90E008958FEF9FEF0895FC01918D3A
:1003E000228D892F90E0805C9F4F821B91098F7333
:1003F0009927089585E792E0F1DF21E0892B09F440
:1004000020E0822F0895FC01848DDF01A80FB11D2B
:10041000A35ABF4F2C91848D90E001968F7399273A
:10042000848FA689B7892C93A089B1898C91837018
:1004300080648C93938D848D981306C00288F38911
:10044000E02D80818F7D80830895EF92FF920F933E
:100450001F93CF93DF93EC0181E0888F9B8D8C8D70
:10046000981305C0E889F989808185FD25C0F62E9D
:100470000B8D10E00F5F1F4F0F731127E02E8C8D37
:10048000E8120BC00FB607FCFACFE889F989808122
:1004900085FFF5CFCE01B7DFF2CF8B8DFE01E80FE0
:1004A000F11DE35AFF4FF0829FB7F8940B8FEA8952
:1004B000FB89808180620AC09FB7F894EE89FF892A
:1004C0006083E889F98980818370806480839FBF1D
:1004D00081E090E0DF91CF911F910F91FF90EF901D
:1004E0000895CF93DF93EC01888D8823C1F0EA89CA
:1004F000FB89808185FD05C0A889B9898C9186FD1D
:100500000EC00FB607FCF5CF808185FFF2CFA8891A
:10051000B9898C9185FFEDCFCE0175DFE8CFDF91F2
:10052000CF91089580E090E0892B19F063DF81116D
:1005300025C080E090E0892B41F080E090E0892B9D
:1005400021F00E94000081111CC080E090E0892B06
:1005500041F080E090E0892B21F00E9400008111A1
:1005600013C080E090E0892BA1F080E090E0892B1F
:1005700081F00E94000081110AC008950E940000CD
:10058000D8CF0E940000E1CF0E940000EACF0C9477
:1005900000000895362F90E0FC01EA5DFE4F449183
:1005A000FC01EA51FE4F2491FC01E056FE4F94916C
:1005B000992309F46CC0442309F455C050E0FA01B2
:1005C0003197E231F10508F04EC08827EE58FF4F11
:1005D0008F4F0C94070B809180008F7707C080911C
:1005E00080008F7D03C080918000877F8093800092
:1005F0003AC084B58F7702C084B58F7D84BD33C087
:100600008091B0008F7703C08091B0008F7D809380
:10061000B00029C0809190008F7707C08091900032
:100620008F7D03C080919000877F809390001BC0D6
:100630008091A0008F7707C08091A0008F7D03C0BC
:100640008091A000877F8093A0000DC08091200141
:100650008F7707C0809120018F7D03C0809120019A
:10066000877F80932001E92FF0E0EE0FFF1FE45910
:10067000FE4FA591B4919FB7F894311104C08C91AD
:100680002095282302C0EC912E2B2C939FBF089518
:100690003FB7F8948091490290914A02A0914B0291
:1006A000B0914C0226B5A89B05C02F3F19F00196CA
:1006B000A11DB11D3FBFBA2FA92F982F8827820FE8
:1006C000911DA11DB11DBC01CD0142E0660F771F38
:1006D000881F991F4A95D1F708958F929F92AF92E4
:1006E000BF92CF92DF92EF92FF926B017C01D0DF3D
:1006F0004B015C01C114D104E104F104E9F0C8DF4D
:10070000DC01CB0188199909AA09BB09883E9340ED
:10071000A105B10578F321E0C21AD108E108F1087A
:1007200088EE880E83E0981EA11CB11CC114D10470
:10073000E104F10421F7DECFFF90EF90DF90CF903E
:10074000BF90AF909F908F9008952FB7F8946091CD
:1007500045027091460280914702909148022FBF56
:1007600008956115710579F0FB0101900020E9F70A
:100770003197AF01461B570BDC01ED91FC910280D4
:10078000F381E02D199480E090E008958F929F927C
:10079000AF92BF92EF92FF920F931F93CF93DF938D
:1007A000CDB7DEB7A1970FB6F894DEBF0FBECDBFB1
:1007B0007C01FA01CB0119A2223008F42AE08E0153
:1007C0000F5D1F4F822E912CA12CB12CBF01A501D2
:1007D0009401A4D5F901CA01015011096A3014F439
:1007E000605D01C0695CD8016C93232B242B252B01
:1007F00069F7B801C701B5DFA1960FB6F894DEBF5F
:100800000FBECDBFDF91CF911F910F91FF90EF9061
:10081000BF90AF909F908F90089501D71F920F9235
:100820000FB60F9211240BB60F922F933F934F9355
:100830005F936F937F938F939F93AF93BF93EF9348
:10084000FF9385E792E0DFDDFF91EF91BF91AF91DC
:100850009F918F917F916F915F914F913F912F91D8
:100860000F900BBE0F900FBE0F901F9018951F9208
:100870000F920FB60F9211240BB60F922F938F93F6
:100880009F93EF93FF93E0918502F0918602808120
:10089000E0918B02F0918C0282FD12C090818091D8
:1008A0008E028F5F8F7320918F02821751F0E0913B
:1008B0008E02F0E0EB58FD4F958F80938E0201C0C1
:1008C0008081FF91EF919F918F912F910F900BBE9F
:1008D0000F900FBE0F901F9018951F920F920FB69A
:1008E0000F9211242F933F938F939F93AF93BF93B6
:1008F0008091450290914602A0914702B091480232
:100900003091440223E0230F2D3720F40196A11DDE
:10091000B11D05C026E8230F0296A11DB11D20932D
:1009200044028093450290934602A0934702B093FD
:1009300048028091490290914A02A0914B02B091E5
:100940004C020196A11DB11D8093490290934A0269
:10095000A0934B02B0934C02BF91AF919F918F91A6
:100960003F912F910F900FBE0F901F901895E5E7C4
:10097000F2E01382128288EE93E0A0E0B0E084837C
:100980009583A683B78380E192E09183808385EC91
:1009900090E09587848784EC90E09787868780EC49
:1009A00090E0918B808B81EC90E0938B828B82EC3A
:1009B00090E0958B848B86EC90E0978B868B118EE4
:1009C000128E138E148EE2E1F3E0168217821086E7
:1009D0001186128613861486158616861786108A47
:1009E000118A128A138A148A158A0895789484B514
:1009F000826084BD84B5816084BD85B5826085BD1B
:100A000085B5816085BD80916E00816080936E00A8
:100A1000109281008091810082608093810080919A
:100A2000810081608093810080918000816080934B
:100A300080008091B10084608093B1008091B0000B
:100A400081608093B00080919100826080939100DA
:100A500080919100816080939100809190008160ED
:100A6000809390008091A10082608093A10080918A
:100A7000A10081608093A1008091A000816080939B
:100A8000A000809121018260809321018091210149
:100A900081608093210180912001816080932001F9
:100AA00080917A00846080937A0080917A008260DD
:100AB00080937A0080917A00816080937A0080919F
:100AC0007A00806880937A001092C10010925603D9
:100AD0001092570310925803109259031092140366
:100AE0001092150310921603109217032EDE6B015D
:100AF0007C014B015C0128EB820E2BE0921EA11CB5
:100B0000B11C23DE6C157D058E059F0528F0861629
:100B10009706A806B906A8F785E792E090935503D3
:100B200080935403B5DB11DE6093140370931503B7
:100B300080931603909317036EE172E08091540343
:100B4000909155030EDE01DE6B017C014B015C01CF
:100B50003AE0830E911CA11CB11CF7DD6C157D05DC
:100B60008E059F0528F086169706A806B906A8F7F1
:100B700081E0809328038CDBC2E08C2FB1DBCF5F58
:100B8000CE30D9F786E3ACDB87E3AADB88E3A8DBCA
:100B900089E3A6DB01E712E0C9E5D2E0B4E08B2EE1
:100BA000912CA12CB12C88E6C82EDD24D394E12C05
:100BB000F12C62E070E080E090E08FDD6AD2A50168
:100BC0009401CED3DC01CB010296A11DB11D998306
:100BD000888362E070E080E090E07FDD5AD2A5017A
:100BE0009401BED3DC01CB010296A11DB11D9B83F4
:100BF0008A8362E070E080E090E06FDD4AD2A70176
:100C00009601AED3072E000C880B990B98D2B5D461
:100C10009B01AC01E1D347D47D836C8362E070E03B
:100C200080E090E05ADD35D2A701960199D3072ED6
:100C3000000C880B990B83D233D49B01AC01CCD32D
:100C400032D47F836E8328960C171D0709F0B1CF2D
:100C5000F4EF8F2E99249394A12CB12CA5E52A2E84
:100C6000A2E03A2E72DD672B682B692B39F46DDD1B
:100C7000623071058105910508F4FCC066DDC09005
:100C80007102D0907202E0907302F09074026C15C1
:100C90007D058E059F0540F460937102709372028A
:100CA0008093730290937402C0907102D09072028C
:100CB000E0907302F09074029B01AC012C193D0985
:100CC0004E095F0969017A013AEFC316D104E104C4
:100CD000F10408F4CFC060937102709372028093A4
:100CE0007302909374028092200390922103A09249
:100CF0002203B09223031092240310922503109232
:100D00002603109227038091180390911903A09154
:100D10001A03B0911B0380931C0390931D03A093AF
:100D20001E03B0931F0311DD609318037093190322
:100D300080931A0390931B0308DD60931403709350
:100D400015038093160390931703FFDC6B017C015E
:100D500060E372E0809154039091550302DD2AE034
:100D600041E050E060E070E08091540390915503C1
:100D70000DDD67E372E08091540390915503F1DC3F
:100D80002AE0B701A6018091540390915503FEDC3F
:100D900069E372E08091540390915503E2DC809105
:100DA000180390911903A0911A03B0911B03B70186
:100DB000A601481B590B6A0B7B0B2AE08091540358
:100DC00090915503E3DC69E372E0809154039091C4
:100DD0005503C7DC409118035091190360911A0321
:100DE00070911B0380911C0390911D03A0911E0321
:100DF000B0911F03481B590B6A0B7B0B2AE08091B3
:100E0000540390915503C2DC6BE372E0809154036C
:100E100090915503A6DC99DCAB01BC012AE08091DE
:100E2000540390915503B2DCC0915403D091550303
:100E30006DE372E0CE0195DC6DE272E0CE0191DCF3
:100E400084DC2B013C016B017C0142E0C40ED11C0F
:100E5000E11CF11C7ADC641575058605970508F020
:100E6000C0C073DC609318037093190380931A0356
:100E700090931B03E9E5F2E0248135818681978117
:100E800060817181AB01415051094730510518F023
:100E900031952195310942815381DA0111971797D4
:100EA00018F0919581959109620F731F718360838A
:100EB000480F591F53834283358324839783868346
:100EC00038960E171F07C1F6309358022093570229
:100ED0009093560280935502EDE4EE2EE2E0FE2E52
:100EE000D70120E030E028303105E9F080E090E0E3
:100EF00060E08830910599F0E9E5F2E040815181A8
:100F00008417950731F4428153812417350709F47A
:100F10006FC038960E171F0789F70196EACF6D93B9
:100F20002F5F3F4FE0CF74E0C72E72E0D72EF7015E
:100F3000C1917F016C2F6170F1E06F278AE02ADB9D
:100F4000D0E0C095D095BE017595679561708BE036
:100F500021DBBE01759567957595679561708CE08D
:100F600019DBBE0123E0759567952A95E1F761705D
:100F70008DE010DBBE0134E0759567953A95E1F799
:100F8000617086E307DBBE0145E0759567954A957C
:100F9000E1F7617087E3FEDABE0156E0759567956B
:100FA0005A95E1F7617088E3F5DACC0FCD2FCC1FAD
:100FB000DD0B6C2F617089E3EDDAF601C1916F01F1
:100FC00061E08C2FE7DA62E370E080E090E085DB9F
:100FD00060E08C2FDFDA2E143F0409F0A8CFA2DAEC
:100FE00041CEC616D706E806F90608F033CF39CF4A
:100FF00041E050E0082E01C0440F0A94EAF7642B48
:101000008CCF8F929F92AF92BF92CF92DF92EF924E
:10101000FF92CF93DF93EC01688179818A819B8174
:10102000611571058105910521F464E279ED8BE587
:1010300097E02DE133EF41E050E092D149015A01B0
:101040009B01AC01A7EAB1E4A7D16B017C01ACEE36
:10105000B4EFA5019401ACD1DC01CB018C0D9D1D39
:10106000AE1DBF1DB7FF03C00197A109B04888831B
:101070009983AA83BB83BC01CD019F77DF91CF9178
:10108000FF90EF90DF90CF90BF90AF909F908F90A8
:1010900008958F929F92AF92BF92CF92DF92EF927C
:1010A000FF92609100027091010280910202909182
:1010B0000302611571058105910521F464E279ED62
:1010C0008BE597E02DE133EF41E050E049D1490154
:1010D0005A019B01AC01A7EAB1E45ED16B017C012E
:1010E000ACEEB4EFA501940163D1DC01CB018C0D12
:1010F0009D1DAE1DBF1DB7FF03C00197A109B048DC
:101100008093000290930102A0930202B093030225
:10111000BC01CD019F77FF90EF90DF90CF90BF9003
:10112000AF909F908F90089560930002709301029A
:1011300080930202909303020895E89409C097FBFC
:101140003EF490958095709561957F4F8F4F9F4F9E
:101150009923A9F0F92F96E9BB279395F6958795E2
:1011600077956795B795F111F8CFFAF4BB0F11F4A5
:1011700060FF1BC06F5F7F4F8F4F9F4F16C088234C
:1011800011F096E911C0772321F09EE8872F762F82
:1011900005C0662371F096E8862F70E060E02AF0C3
:1011A0009A95660F771F881FDAF7880F96958795AF
:1011B00097F908950BD078C069D028F06ED018F058
:1011C000952309F05AC05FC01124A2C07ED0A0F3BD
:1011D000959FD1F3950F50E0551F629FF001729FCC
:1011E000BB27F00DB11D639FAA27F00DB11DAA1FEB
:1011F000649F6627B00DA11D661F829F2227B00D38
:10120000A11D621F739FB00DA11D621F839FA00DC2
:10121000611D221F749F3327A00D611D231F849F12
:10122000600D211D822F762F6A2F11249F57504069
:101230008AF0E1F088234AF0EE0FFF1FBB1F661F04
:10124000771F881F91505040A9F79E3F510570F0BD
:1012500014C05EC05F3FECF3983EDCF38695779553
:101260006795B795F795E7959F5FC1F7FE2B880FB8
:10127000911D9695879597F9089597F99F6780E84E
:1012800070E060E008959FEF80EC089500240A94D8
:101290001616170618060906089500240A94121651
:1012A0001306140605060895092E0394000C11F484
:1012B000882352F0BB0F40F4BF2B11F460FF04C031
:1012C0006F5F7F4F8F4F9F4F089557FD9058440F8A
:1012D000551F59F05F3F71F04795880F97FB991F95
:1012E00061F09F3F79F08795089512161306140652
:1012F000551FF2CF4695F1DF08C0161617061806DF
:10130000991FF1CF86957105610508940895E894B9
:10131000BB2766277727CB0197F90895A1E21A2EFC
:10132000AA1BBB1BFD010DC0AA1FBB1FEE1FFF1F89
:10133000A217B307E407F50720F0A21BB30BE40BD9
:10134000F50B661F771F881F991F1A9469F7609520
:101350007095809590959B01AC01BD01CF010895DA
:10136000052E97FB16F400940FD057FD05D0D6DF5D
:1013700007FC02D046F408C0509540953095219561
:101380003F4F4F4F5F4F08959095809570956195B1
:101390007F4F8F4F9F4F08950FD0A59F900DB49F03
:1013A000900DA49F800D911D11240895B7FFF4CFD7
:1013B000F3DF821B930B0895A29FB001B39FC0017E
:1013C000A39F700D811D1124911DB29F700D811D71
:1013D0001124911D08955058BB27AA270ED064CF21
:1013E00055DF30F05ADF20F031F49F3F11F41EF446
:1013F0004ACF0EF4E095E7FB40CFE92F66DF80F39C
:10140000BA17620773078407950718F071F49EF501
:101410007ECF0EF4E0950B2EBA2FA02D0B01B90153
:1014200090010C01CA01A0011124FF27591B99F05A
:10143000593F50F4503E68F11A16F040A22F232F66
:10144000342F4427585FF3CF469537952795A795B6
:10145000F0405395C9F77EF41F16BA0B620B730B5D
:10146000840BBAF09150A1F0FF0FBB1F661F771FCE
:10147000881FC2F70EC0BA0F621F731F841F48F483
:10148000879577956795B795F7959E3F08F0B3CF09
:101490009395880F08F09927EE0F979587950895F3
:1014A00034D0E39559C004D06894B11131CF089578
:1014B00014DF88F09F5790F0B92F9927B751A0F00B
:1014C000D1F0660F771F881F991F1AF0BA95C9F7D8
:1014D00012C0B13081F01BDFB1E0089518CF672F43
:1014E000782F8827B85F39F0B93FCCF38695779588
:1014F0006795B395D9F73EF4909580957095619571
:101500007F4F8F4F9F4F0895BECEE7DEE8F3E894FC
:10151000E0E0BB279F57F0F02AED3FE049EC06C022
:10152000EE0FBB0F661F771F881F28F0B23A6207C5
:101530007307840728F0B25A620B730B840BE39590
:101540009A9572F7803830F49A95BB0F661F771F13
:10155000881FD2F7904819C0EF93E0FF06C0A2EAB7
:101560002AED3FE049EC5FEB48DF9EDE0F900394ED
:1015700001FC9058E8E0F1E014C09F93C6DF0F90A3
:1015800007FCEE5FE9CF9F3F31F0915020F4879543
:1015900077956795B795880F911D9695879597F9DB
:1015A00008959F938F937F936F93FF93EF939B0186
:1015B000AC0100DEEF91FF9105D02F913F914F914B
:1015C0005F91F8CDDF93CF931F930F93FF92EF922C
:1015D000DF927B018C01689405C0DA2EEF01F6DD05
:1015E000FE01E894A5912591359145915591AEF371
:1015F000EF0103DFFE019701A801DA9479F7DF908C
:10160000EF90FF900F911F91CF91DF910895EE0F12
:10161000FF1F881F8BBF0790F691E02D199481E082
:0A16200090E0F89400C0F894FFCFAA
:10162A000100000002030405060708090000000083
:10163A0025028F01BD017102EE01CC01E001564D78
:10164A004450565F317C315F564D4450560D0A0066
:10165A00564D4450455F003A323A007C005F564D81
:04166A0044504500A3
:00000001FF
